{"abi":[{"type":"constructor","inputs":[{"name":"_eas","type":"address","internalType":"address"}],"stateMutability":"nonpayable"},{"type":"function","name":"candidateVotes","inputs":[{"name":"","type":"uint256","internalType":"uint256"}],"outputs":[{"name":"","type":"uint256","internalType":"uint256"}],"stateMutability":"view"},{"type":"function","name":"eas","inputs":[],"outputs":[{"name":"","type":"address","internalType":"contract IEAS"}],"stateMutability":"view"},{"type":"function","name":"getVotes","inputs":[{"name":"candidateId","type":"uint256","internalType":"uint256"}],"outputs":[{"name":"","type":"uint256","internalType":"uint256"}],"stateMutability":"view"},{"type":"function","name":"hasVoted","inputs":[{"name":"","type":"address","internalType":"address"}],"outputs":[{"name":"","type":"bool","internalType":"bool"}],"stateMutability":"view"},{"type":"function","name":"owner","inputs":[],"outputs":[{"name":"","type":"address","internalType":"address"}],"stateMutability":"view"},{"type":"function","name":"totalVotes","inputs":[],"outputs":[{"name":"","type":"uint256","internalType":"uint256"}],"stateMutability":"view"},{"type":"function","name":"vote","inputs":[{"name":"candidateId","type":"uint256","internalType":"uint256"},{"name":"attestationUID","type":"bytes32","internalType":"bytes32"}],"outputs":[],"stateMutability":"nonpayable"},{"type":"event","name":"VoteCast","inputs":[{"name":"voter","type":"address","indexed":true,"internalType":"address"},{"name":"candidateId","type":"uint256","indexed":false,"internalType":"uint256"}],"anonymous":false}],"bytecode":{"object":"0x608060405234801561000f575f5ffd5b50604051610d1d380380610d1d83398181016040528101906100319190610114565b805f5f6101000a81548173ffffffffffffffffffffffffffffffffffffffff021916908373ffffffffffffffffffffffffffffffffffffffff1602179055503360015f6101000a81548173ffffffffffffffffffffffffffffffffffffffff021916908373ffffffffffffffffffffffffffffffffffffffff1602179055505061013f565b5f5ffd5b5f73ffffffffffffffffffffffffffffffffffffffff82169050919050565b5f6100e3826100ba565b9050919050565b6100f3816100d9565b81146100fd575f5ffd5b50565b5f8151905061010e816100ea565b92915050565b5f60208284031215610129576101286100b6565b5b5f61013684828501610100565b91505092915050565b610bd18061014c5f395ff3fe608060405234801561000f575f5ffd5b506004361061007b575f3560e01c80638150864d116100595780638150864d146100e95780638da5cb5b14610107578063f49e323e14610125578063ff981099146101555761007b565b806309eef43e1461007f5780630d15fd77146100af57806368bb8bb6146100cd575b5f5ffd5b61009960048036038101906100949190610505565b610185565b6040516100a6919061054a565b60405180910390f35b6100b76101a2565b6040516100c4919061057b565b60405180910390f35b6100e760048036038101906100e291906105f1565b6101a8565b005b6100f1610422565b6040516100fe919061068a565b60405180910390f35b61010f610446565b60405161011c91906106b2565b60405180910390f35b61013f600480360381019061013a91906106cb565b61046b565b60405161014c919061057b565b60405180910390f35b61016f600480360381019061016a91906106cb565b610480565b60405161017c919061057b565b60405180910390f35b6003602052805f5260405f205f915054906101000a900460ff1681565b60025481565b60035f3373ffffffffffffffffffffffffffffffffffffffff1673ffffffffffffffffffffffffffffffffffffffff1681526020019081526020015f205f9054906101000a900460ff1615610232576040517f08c379a000000000000000000000000000000000000000000000000000000000815260040161022990610750565b60405180910390fd5b3373ffffffffffffffffffffffffffffffffffffffff165f5f9054906101000a900473ffffffffffffffffffffffffffffffffffffffff1673ffffffffffffffffffffffffffffffffffffffff1663a3112a64836040518263ffffffff1660e01b81526004016102a2919061077d565b5f60405180830381865afa1580156102bc573d5f5f3e3d5ffd5b505050506040513d5f823e3d601f19601f820116820180604052508101906102e49190610a78565b60c0015173ffffffffffffffffffffffffffffffffffffffff161461033e576040517f08c379a000000000000000000000000000000000000000000000000000000000815260040161033590610b09565b60405180910390fd5b600160035f3373ffffffffffffffffffffffffffffffffffffffff1673ffffffffffffffffffffffffffffffffffffffff1681526020019081526020015f205f6101000a81548160ff02191690831515021790555060045f8381526020019081526020015f205f8154809291906103b490610b54565b919050555060025f8154809291906103cb90610b54565b91905055503373ffffffffffffffffffffffffffffffffffffffff167fa36cc2bebb74db33e9f88110a07ef56e1b31b24b4c4f51b54b1664266e29f45b83604051610416919061057b565b60405180910390a25050565b5f5f9054906101000a900473ffffffffffffffffffffffffffffffffffffffff1681565b60015f9054906101000a900473ffffffffffffffffffffffffffffffffffffffff1681565b6004602052805f5260405f205f915090505481565b5f60045f8381526020019081526020015f20549050919050565b5f604051905090565b5f5ffd5b5f5ffd5b5f73ffffffffffffffffffffffffffffffffffffffff82169050919050565b5f6104d4826104ab565b9050919050565b6104e4816104ca565b81146104ee575f5ffd5b50565b5f813590506104ff816104db565b92915050565b5f6020828403121561051a576105196104a3565b5b5f610527848285016104f1565b91505092915050565b5f8115159050919050565b61054481610530565b82525050565b5f60208201905061055d5f83018461053b565b92915050565b5f819050919050565b61057581610563565b82525050565b5f60208201905061058e5f83018461056c565b92915050565b61059d81610563565b81146105a7575f5ffd5b50565b5f813590506105b881610594565b92915050565b5f819050919050565b6105d0816105be565b81146105da575f5ffd5b50565b5f813590506105eb816105c7565b92915050565b5f5f60408385031215610607576106066104a3565b5b5f610614858286016105aa565b9250506020610625858286016105dd565b9150509250929050565b5f819050919050565b5f61065261064d610648846104ab565b61062f565b6104ab565b9050919050565b5f61066382610638565b9050919050565b5f61067482610659565b9050919050565b6106848161066a565b82525050565b5f60208201905061069d5f83018461067b565b92915050565b6106ac816104ca565b82525050565b5f6020820190506106c55f8301846106a3565b92915050565b5f602082840312156106e0576106df6104a3565b5b5f6106ed848285016105aa565b91505092915050565b5f82825260208201905092915050565b7f416c726561647920766f746564000000000000000000000000000000000000005f82015250565b5f61073a600d836106f6565b915061074582610706565b602082019050919050565b5f6020820190508181035f8301526107678161072e565b9050919050565b610777816105be565b82525050565b5f6020820190506107905f83018461076e565b92915050565b5f5ffd5b5f601f19601f8301169050919050565b7f4e487b71000000000000000000000000000000000000000000000000000000005f52604160045260245ffd5b6107e08261079a565b810181811067ffffffffffffffff821117156107ff576107fe6107aa565b5b80604052505050565b5f61081161049a565b905061081d82826107d7565b919050565b5f5ffd5b5f81519050610834816105c7565b92915050565b5f67ffffffffffffffff82169050919050565b6108568161083a565b8114610860575f5ffd5b50565b5f815190506108718161084d565b92915050565b5f81519050610885816104db565b92915050565b61089481610530565b811461089e575f5ffd5b50565b5f815190506108af8161088b565b92915050565b5f5ffd5b5f5ffd5b5f67ffffffffffffffff8211156108d7576108d66107aa565b5b6108e08261079a565b9050602081019050919050565b8281835e5f83830152505050565b5f61090d610908846108bd565b610808565b905082815260208101848484011115610929576109286108b9565b5b6109348482856108ed565b509392505050565b5f82601f8301126109505761094f6108b5565b5b81516109608482602086016108fb565b91505092915050565b5f610140828403121561097f5761097e610796565b5b61098a610140610808565b90505f61099984828501610826565b5f8301525060206109ac84828501610826565b60208301525060406109c084828501610863565b60408301525060606109d484828501610863565b60608301525060806109e884828501610863565b60808301525060a06109fc84828501610826565b60a08301525060c0610a1084828501610877565b60c08301525060e0610a2484828501610877565b60e083015250610100610a39848285016108a1565b6101008301525061012082015167ffffffffffffffff811115610a5f57610a5e610822565b5b610a6b8482850161093c565b6101208301525092915050565b5f60208284031215610a8d57610a8c6104a3565b5b5f82015167ffffffffffffffff811115610aaa57610aa96104a7565b5b610ab684828501610969565b91505092915050565b7f496e76616c6964206174746573746174696f6e000000000000000000000000005f82015250565b5f610af36013836106f6565b9150610afe82610abf565b602082019050919050565b5f6020820190508181035f830152610b2081610ae7565b9050919050565b7f4e487b71000000000000000000000000000000000000000000000000000000005f52601160045260245ffd5b5f610b5e82610563565b91507fffffffffffffffffffffffffffffffffffffffffffffffffffffffffffffffff8203610b9057610b8f610b27565b5b60018201905091905056fea26469706673582212200908814dcf6e1ce881e69e80ae8c7c4b5e0579f2b6bb0e7ae4e14a02838e1e3564736f6c634300081e0033","linkReferences":{}},"methodIdentifiers":{"candidateVotes(uint256)":"f49e323e","eas()":"8150864d","getVotes(uint256)":"ff981099","hasVoted(address)":"09eef43e","owner()":"8da5cb5b","totalVotes()":"0d15fd77","vote(uint256,bytes32)":"68bb8bb6"},"id":26}